:020000040000FA
:0600000087EF0AF0120078
:020006001200E6
:06000800D0EF07F012002A
:02000E000200EE
:100010006015000060000000110000005E15000087
:080020007B000000020000005B
:0800280050EC05F0FB0EDBCFEC
:10003000F3FFDB06F35000090AE09EEC05F0FA0E30
:1000400009EC06F0F3E1241CF1E1010E01D0000EF1
:100050007FEF05F050EC05F03B0EE12402E3E16890
:10006000E652E16E010EDB6A020EDB6AF90EDBCFAF
:10007000F6FFFA0EDBCFF7FFFB0EDBCFF8FF080031
:10008000F550DF6EDF5002E1A3EF04F0250EDF5CD8
:1000900002E096EF04F0030EDB6A040EDB6A050E45
:1000A000DB6A060EDB6A070EDB6AB8EC04F02D0E85
:1000B000DF5C0CE02B0EDF5C09E0200EDF5C06E06D
:1000C000230EDF5C03E0300EDF5C1AE1DF50300A04
:1000D00014E0130A0FE0030A0AE00B0A05E0060A1F
:1000E000E4E1030EDB80E1D7030EDB82DED7030EF3
:1000F000DB84DBD7030EDB86D8D7030EDB88D5D7AE
:100100002A0EDF5C1BE1B4EC04F002EC05F010E019
:10011000030EDB8008680968130EDBCF0DF0140EA8
:10012000DBCF0EF014EC0AF0040E06C0DBFF03D0A8
:10013000130EEBEC04F0B8EC04F00BD0090EDB6A04
:1001400059EC05F003E0CDEC05F0FAD7090EEBEC25
:1001500004F0030EDBB0DB982E0EDF5C1BE1B8EC85
:1001600004F02A0EDF5C0BE1B4EC04F002EC05F0C5
:1001700003E1130E3DEC05F0B8EC04F00BD0090ED2
:10018000DB6A59EC05F003E0CDEC05F0FAD7090E77
:100190003DEC05F0680EDF5C07E1B8EC04F0680E9A
:1001A000DF5C1DE1030E18D0740EDF5C17E07A0EE1
:1001B000DF5C14E0480EDF5C06E0540EDF5C03E019
:1001C0005A0EDF5C02E1020E07D06C0EDF5C03E02A
:1001D0006A0EDF5C04E1010E90EC05F0C9DBDF5034
:1001E0006E0A01E17FD31E0A01E192D1200A01E1EA
:1001F0008FD13F0A01E149D11A0A01E146D10D0A26
:1002000001E143D1200A01E140D13A0A01E13DD1A7
:10021000200A01E13AD1260A01E135D10D0A01E1B6
:1002200032D11A0A01E1D9D0200A4AE0300A1FE08F
:10023000460A0EE0250A01E083D3D950F90FE96E92
:10024000FF0EDA20EA6E010EEE5E000EEE5AEE5A56
:100250009EEC05F0250EE66E95DB03E1241C01E122
:1002600069D39AEC05F001E26BD3DB2A69D3080E5F
:10027000DB6A040EDB50010806E2040EDB0462ECCC
:1002800005F0DB508BDB080EDB5009E0030EDB5082
:10029000010B05E172DB01E04DD3080EDB6A64DB84
:1002A000EFCFDFFF12EC06F003E1241C01E142D3A3
:1002B0009AEC05F001E3DB2A60DB01E141D33AD39C
:1002C000070EDB5002080FE1DEEC05F0030EA5EC93
:1002D00005F00E0EEECFDBFF0F0EEECFDBFF100EA4
:1002E000EECFDBFF20D0F70EDBCF26F0F80EDBCF12
:1002F00027F0020E265E000E275AF70E26C0DBFFFF
:10030000F80E27C0DBFF26C0E9FF27C0EAFF95EC07
:1003100005F0256A0E0E23C0DBFF0F0E24C0DBFFA5
:10032000100E25C0DBFF0E0EDBCFE6FF0F0EDBCF7E
:10033000E6FF100EDBCFE6FF29EC09F0E552E552AF
:10034000E552130E07C0DBFF140E08C0DBFF060EDC
:10035000DB5005E0130ED9EC05F001E26ADBFDECA1
:1003600005F002E2130E37DBC0EC05F006E0040EE8
:10037000D9EC05F002E2050E2EDB030EDBB005D052
:10038000FCDA01E0D7D2080EDB6A090EDB6A0E0E3A
:10039000DBCFF6FF0F0EDBCFF7FF100EDBCFF8FF42
:1003A0000800F550DF6EDF5014E003EC06F011E2B8
:1003B00012EC06F003E1241C01E1BCD2BBDB01E33B
:1003C000DB2A090EDB2AD9500E0FE96E000ECBDBBB
:1003D000E7D7D3DA01E1B4D2ADD2C6DA110EEECF4F
:1003E000DBFF120EEDCFDBFF110EDBCFE6FF120EAF
:1003F000DBCFE6FF1BEC09F0E552E552130EF3CF1D
:10040000DBFF140EF4CFDBFF060EDB5004E0130E0F
:10041000D0DB01E20EDBFDEC05F002E2130EDBDACD
:10042000AFDB05E0040EC5DB02E2050ED4DA030EF5
:10043000DBB005D0A2DA01E07DD2080EDB6A090E3E
:10044000DB6A110EDBCFE9FF120EDBCFEAFFEFCF45
:10045000DFFFDF5014E0D7DB12E2E4DB03E1241C12
:1004600001E168D267DB01E3DB2A090EDB2A110E0A
:10047000DB2ADBCFE9FF120EE8E3DB2AE6D77DDAE1
:1004800001E15ED257D2030EDB8E070EDB0410E1D2
:1004900095DB040E5ADB0A0EEECFDBFF0B0EEECF20
:1004A000DBFF0C0EEECFDBFF0D0EEECFDBFF6CD0D3
:1004B000070EDB5003082CE1030EDBAE0DD0B2DAE1
:1004C000020E76DAEFCF23F0246A256A266A23AE7D
:1004D00039D02468256835D0F70EDBCF24F0F80E2C
:1004E000DBCF25F0020E245E000E255AF70E24C045
:1004F000DBFFF80E25C0DBFF24C0E9FF25C0EAFFC3
:10050000EFCF23F00A0E23C0DBFF0B0EDB6A38D0DF
:10051000070EDB50020809E1030EDBAE04D059DB05
:1005200025AE10D00ED055DB0DD0030EDBAE12D0B1
:1005300079DA020E3DDAF9DA256A266A24AE02D0AB
:1005400025682668E2DA0C0E25C0DBFF0D0E26C0FA
:10055000DBFF1AD0F70EDBCF25F0F80EDBCF26F04D
:10056000020E255E000E265AF70E25C0DBFFF80EA0
:1005700026C0DBFF25C0E9FF26C0EAFFD6DAC5DAD0
:100580000C0EDB6A0D0EDB6A060EDB5005E1010E78
:10059000F36E050EF3CFDBFF150EDB6A160EDB6A7A
:1005A000D950370F236E000EDA20246E390E23C087
:1005B000DBFF3A0E24C0DBFF380EDB6A080EDB6A75
:1005C0000A0EAEDADF50780A12E0200A10E0280A9C
:1005D0000CE0200A0AE03F0A06E00D0A02E0200AC9
:1005E00008E1020E05D0080E03D0080EDF26100E1B
:1005F00097DA030EDBBE02D0DB92DB94DB50800B7C
:1006000024E08ADAD890030EEB50000A08E6000EC8
:10061000EE5C000EEE58000EEE58000EEE5815E29D
:1006200013DA0B680C680D680E68DCEC09F00A0E32
:1006300002C0DBFF0B0E03C0DBFF0C0E04C0DBFFB0
:100640000D0E05C0DBFF2D0E08D0030EDBA202D07D
:100650002B0E03D0DBA408D0200EF36E170EF3CFC1
:10066000DBFF150EDB2A02D0170EDB6A050EDB500E
:1006700003E1B7D901E189D0460E236E150E246E31
:10068000000E256E070EDBCF26F0276A286A296A3E
:1006900026C00BF027C00CF028C00DF029C00EF0CA
:1006A000D3D941EC0AF023500224F36E24500320E6
:1006B000F46E25500420F86EF4CFF7FFF3CFF6FF69
:1006C0000800090EF5CFDBFF580EDF5C0FE1610E6D
:1006D000F36E090E7BD90AE3200E236E090EDBCFE1
:1006E000E7FF2350E75E090EE7CFDBFF070EDBCF06
:1006F00023F0246A256A266A0FDA23C00BF024C08F
:100700000CF025C00DF026C00EF0EECF06F0EECFB7
:1007100007F0EECF08F0EFCF09F041EC0AF009C086
:10072000EDFF08C0EDFF07C0EDFF06C0EFFF390E7B
:10073000DBCFE9FFDB063A0EDBCFEAFF01E2DB06A7
:10074000090EDBCFEFFF150EDB2A4BD995E1030E27
:10075000DBA61DD06F0EDF5C06E1C1D918E3150ED4
:10076000DB285BDA14D0780EDF5C09E0580EDF5C22
:1007700006E0620EDF5C03E0420EDF5C08E1020E81
:10078000F36E160EF3CFDBFF02D0150EDB6A030EFD
:10079000DB50100B0EE0040EDBCF23F0050EDB5018
:1007A000D880235406E2060EDB5003E1040EDB5032
:1007B00034DA95D90AE2050EDBCFE7FF150EDB50E0
:1007C000E75E050EE7CFDBFF02D0050EDB6A040E05
:1007D000DBCF23F0160E45D9D880235414E2160E31
:1007E000DBCFE6FF150EDBCFE6FF040EDBCFE6FF27
:1007F000050EDB50E552E75CE552D880E754E55240
:10080000D880E7545FD9030EDB50010B0BE1080ED3
:10081000DB5008E0B2D801E08DD0080EDB50BED826
:10082000080EDB6A170EDB5007E088D9170EF1D9E6
:1008300003E1241C01E17ED0160EDB5016E07ED9C8
:10084000300EE66E9FD802E1241C74E077D9DFCF2A
:10085000E6FF9AEC09F0E552E552E552F4CF24F0B8
:100860000001F31C02E1241C65E0050EDBCF23F040
:10087000160EDB50D880235409E2050EDBCFE7FFCC
:10088000160EDB50E75E050EE7CFDBFF300EE66E9F
:10089000050ECBD94FE1390EDB2ADBCFE9FF3A0E4B
:1008A00001E3DB2ADBCFEAFF090EEFCFDBFFDB50F2
:1008B0000EE044D9090EADD902E1241C3BE0390E0B
:1008C000DB2ADBCFE9FF3A0EEDE3DB2AEBD755D885
:1008D00031E1160EDBCFE6FF080EC3D8E552E72460
:1008E0005DD82ED0070EDB50030A1CE0010A14E08D
:1008F000030A07E07BD9DBCFEEFF020EDBCFEDFF73
:100900001FD0F5D8286A26AE02D0276828682CD8D0
:10091000BCD828C0EEFF14D0EAD826BE276824D859
:10092000B4D80ED063D9DBCFEFFF0AD07BD905E175
:10093000241C03E1F368F46810D0FCD801E3DB2A3F
:1009400079D93FEF00F0010EDBCF23F0020EDBCFB1
:1009500024F023C0F3FF24C0F4FF3B0EE15C02E26D
:10096000E16AE552E16ECBD029D9020EA5EF05F080
:1009700061D90800F550DF6E1200200EE66E080EF9
:1009800015EF06F09AEC09F0E552E552E552F3CF87
:1009900023F0F4CF24F00001F31C1200236E246A2C
:1009A000D950010F4DD92350EE262450ED221200CC
:1009B000275E000E285AF70E27C0DBFFF80E28C06E
:1009C000DBFF27C0E9FF28C0EAFF1200DBCFF4FFFE
:1009D000F350F45C1200DB50E76E040EE7CFDBFF50
:1009E00012000A0EDBCF23F00B0EDBCF24F00C0E2F
:1009F000DBCF25F00D0EDBCF26F023502410251081
:100A000026101200130EEECFDBFF140EEDCFDBFF2E
:100A1000130EDBCF23F0140EDBCF24F00001800E89
:100A200024141200F70EDBCF27F0F80EDBCF28F0EE
:100A30001200050EDB50E66ED950130F01D9E552B6
:100A4000E750EE6EED6A12000A0EDBCF06F00B0ED9
:100A5000DBCF07F00C0EDBCF08F00D0EDBCF09F07B
:100A60001200DBCFE6FF150EDBCFE6FF050EDB50F5
:100A7000E552E724E552E7241200DB50CED8010E00
:100A8000F36E060EF3CFDBFF1200EE50EFCFEAFF5E
:100A9000E96E25C0EEFF26C0EEFF27C0EEFF120074
:100AA000D9CFE6FFDACFE6FFE1CFD9FFE2CFDAFF19
:100AB0001200DFCFE6FFE66A65EC0AF0E552E55288
:100AC000F3501200E76E080EE7CFDBFF1200EECF07
:100AD00023F0EECF24F0EFCF25F0266A1200050EAA
:100AE000DBCF23F0150EDB50D88023541200010E0B
:100AF000DBCF25F0020EDBCF26F0276A1200E5528D
:100B0000E5CFDAFFE7CFD9FF12000A0E23C0DBFFE3
:100B10000B0E24C0DBFF1200D9500A0F20EF06F0A5
:100B2000F36E070EF3CFDBFF1200EECF23F0EFCF13
:100B300024F01200010EDB2A020E1200FC0EDBCFA5
:100B4000E6FFFD0EDBCFE6FF1200235E000E245A07
:100B5000F70E23C0DBFFF80E24C0DBFF23C0E9FF44
:100B600024C0EAFF1200DA20EA6EEF2AEECFF6FF89
:100B7000000EEF22EECFF7FFEF22EECFF8FF1200CC
:100B8000040EDBCFE6FF130EDB50E552E75C9ADF85
:100B9000DB5004DF060EDB501200090EDB500A0D9D
:100BA000F350DF24D00FE76E090EE7CFDBFFB8EF7D
:100BB00004F0DB50F36E050EE6EF04F0F70EDBCF2A
:100BC00023F0F80EDBCF24F01200DFCFE6FFC2EFF8
:100BD00004F028DF030EECDE67EF05F014EC00F004
:100BE000E552E552E552E55200091200BDDEEE5035
:100BF000EFCFEAFFE96E010E1200130EDB50F36E29
:100C0000040EE6EF04F0040EDB50F36E090EE6EF7F
:100C100004F0DBCFE6FFC2EF04F0E76E050EE7CF8E
:100C2000DBFF12008BDFE5EF05F0DBCFE6FF86DFB1
:100C3000EEEF05F0D950F90FE96EFF0EB3EF05F0B6
:0A0C4000E96E000EDA20EA6E1200E1
:060C4A00520ED36ED3A48C
:100C5000FED712000F01396B3A6B938A819A946820
:100C60001200400EB86E900EAB6E0C0EAF6E260EDC
:100C7000AC6E1200900ED56EF80ED76E300ED66E9A
:100C80001200F294F80ED76E300ED66E1200D00E0F
:100C9000CC6E9E909D80A490A380030ECD6E12001A
:100CA000D9CFE6FFE1CFD9FF020EE126DE6ADD6A89
:100CB000CE50DE6EDD6ACF50236E23C024F0236A4F
:100CC000D9CFE9FFDACFEAFF2350EE122450ED121C
:100CD000DECF23F0DDCF24F023C0F3FF24C0F4FFE8
:100CE000020EE15C03E200D0E16AE552E16EE552FA
:100CF000E7CFD9FF1200D9CFE6FFE1CFD9FFFD0E34
:100D0000DBCFE9FFFE0EDBCFEAFF0E0EE926000E79
:100D1000EA22EF5001E1FFD0FD0EDBCFE9FFFE0E2E
:100D2000DBCFEAFF0E0EE926000EEA22EF6AFD0E87
:100D3000DBCFE9FFFE0EDBCFEAFFEF5001E0E8D0AA
:100D4000FD0EDBCFE9FFFE0EDBCFEAFF010EE92649
:100D5000000EEA22EF50FF0801E0DAD0FD0EDBCFF3
:100D6000E9FFFE0EDBCFEAFF020EE926000EEA22C3
:100D7000EF5018081AE1FD0EDBCFE9FFFE0EDBCFC6
:100D8000EAFF030EE926000EEA22EF50E7080DE124
:100D9000FD0EDBCFE9FFFE0EDBCFEAFF100EE926EA
:100DA000000EEA22460EEF6E9BD0FD0EDBCFE9FF70
:100DB000FE0EDBCFEAFF020EE926000EEA22EF501C
:100DC00052081AE1FD0EDBCFE9FFFE0EDBCFEAFF92
:100DD000030EE926000EEA22EF50AD080DE1FD0EEC
:100DE000DBCFE9FFFE0EDBCFEAFF100EE926000E97
:100DF000EA22420EEF6E74D0FD0EDBCFE9FFFE0E4D
:100E0000DBCFEAFF020EE926000EEA22EF500808C7
:100E10001AE1FD0EDBCFE9FFFE0EDBCFEAFF030E8A
:100E2000E926000EEA22EF50F7080DE1FD0EDBCFB8
:100E3000E9FFFE0EDBCFEAFF100EE926000EEA22E4
:100E40004C0EEF6E4DD0FD0EDBCFE9FFFE0EDBCF7B
:100E5000EAFF020EE926000EEA22EF505A081AE1D4
:100E6000FD0EDBCFE9FFFE0EDBCFEAFF030EE92626
:100E7000000EEA22EF50A5080DE1FD0EDBCFE9FFE1
:100E8000FE0EDBCFEAFF100EE926000EEA22520E1C
:100E9000EF6E26D0FD0EDBCFE9FFFE0EDBCFEAFFC3
:100EA000020EE926000EEA22EF501C0819E1FD0EA1
:100EB000DBCFE9FFFE0EDBCFEAFF030EE926000ED3
:100EC000EA22EF50E3080CE1FD0EDBCFE9FFFE0E56
:100ED000DBCFEAFF100EE926000EEA22430EEF6E8A
:100EE000050EE66EE66AE66AFD0EDBCFE9FFFE0E52
:100EF000DBCFEAFFE9CF23F0EACF24F023C0E6FFFF
:100F000024C0E6FF01EC09F0256E050EE15E2550D8
:100F100081AAFED7CC86FD0EDBCFE9FFFE0EDBCF2C
:100F2000EAFF100EE926000EEA22EF5000D0E5524B
:100F3000E7CFD9FF120089DE8DDE93DE9BDEA7DED0
:100F4000F28EF28C1200F7DFCC86AADEF3CF6AF0C5
:100F5000F4CF6BF0600EE66E000EE66ECCDEE5526E
:100F6000E552F2A41BD070C023F0246A23BE24688B
:100F700023C0E6FF24C0E6FF570E256E150E266E31
:100F8000276A25C0E6FF26C0E6FF27C0E6FF4EEC35
:100F900009F0286E050EE15E285073DEDBD71200E3
:100FA000DACFE4FFE2CFDAFFE9CFE4FFEACFE4FFF4
:100FB000F6CFE4FFF7CFE4FFF5CFE4FFF3CFE4FF94
:100FC000F4CFE4FFFACFE4FF00EE00F0140EE804E3
:100FD00003E3EECFE4FFFBD700EE23F0070EE804B7
:100FE00003E3EECFE4FFFBD7E652A450010B01E18F
:100FF0008CD0A350010B01E188D0A49051DEF3CF37
:1010000068F0F4CF69F068C01AF069C01BF01C6A80
:101010006FC01DF01E6A1F6A1DAE02D01E681F68D9
:10102000100ED8901D361E361F36E806FAE11A500B
:101030001D24176E1B501E20186E1C501F20196E89
:101040006AC020F06BC021F0226A2050175C146E39
:1010500021501858156E22501958166E14C06CF095
:1010600015C06DF000016F6BA00ED8806C550F0E8F
:101070006D5509E2880E6C5D130E6D5904E2656BC7
:10108000676B666B1ED0780ED8806C55050E6D555B
:101090000AE2080E6C5D070E6D5905E26791674321
:1010A000678F652B0ED0900ED8806C55010E6D5554
:1010B00008E2BC0E6C5D020E6D5903E26791674356
:1010C000652B080E655D0EE166C0E9FFEA6AE9BEC0
:1010D000EA68600EE926000EEA2267C0EFFF662B81
:1010E000656B676B040EE76E6619E8AE02D0E734F5
:1010F00002D0E750665D04E3010E6E6F666B01D0AF
:10110000CC8668C06AF069C06BF09E50010B06E0A7
:101110009D50010B03E000016F2B9E90E55200EE05
:1011200029F0070EE80403E3E5CFEDFFFBD700EE5F
:1011300013F0140EE80403E3E5CFEDFFFBD7E5CF92
:10114000FAFFE5CFF4FFE5CFF3FFE5CFF5FFE5CFFD
:10115000F7FFE5CFF6FFE5CFEAFFE5CFE9FFE5CF03
:04116000DAFF1100A1
:0C1164000E0EF66E000EF76E000EF86E18
:1011700000010900F550766F0900F550776F03E123
:10118000766701D03DD00900F550716F0900F55028
:10119000726F0900F550736F09000900F550E96E90
:1011A0000900F550EA6E090009000900F550746F56
:1011B0000900F550756F09000900F6CF78F0F7CFF8
:1011C00079F0F8CF7AF071C0F6FF72C0F7FF73C004
:1011D000F8FF0001745302E1755307E00900F55070
:1011E000EE6E7407F8E27507F9D778C0F6FF79C09C
:1011F000F7FF7AC0F8FF00017607000E775BBFD7D4
:021200001200DA
:0E120200FE0EE3CFE9FFFF0EE3CFEAFFE9CFD8
:10121000F3FFEACFF4FFFB0EE35003E1FC0EE350D3
:1012200009E0FB0EE30602E2FC0EE306FD0EE350CE
:10123000EE6EF1D71200FE0EE3CFE9FFFF0EE3CF13
:10124000EAFFF36AF46AEE5203E0F34AF42AFBD7AA
:101250001200FF0EE3CFF8FFE552FF0EE3CFF7FFDA
:10126000E552FF0EE3CFF6FFE552E66AE66AE66A6C
:101270000900F55209E0FD0EE32A05E1FE0EE32A1E
:1012800002E1FF0EE32AF4D7FD0EE3CF07F0FE0ED6
:0C129000E3CF08F0FF0EE3CF09F01200DE
:04129C00D9CFE6FFC1
:1012A000DACFE6FFE1CFD9FFE2CFDAFFE652E6522E
:1012B000E652E652D950FB0F236EFF0EDA20246E61
:1012C00023C0DEFFDD6EDECFE6FFDDCFE6FFFB0EE7
:1012D000DBCFE6FFFC0EDBCFE6FFFD0EDBCFE6FF4C
:1012E0007BC0E6FF7CC0E6FF2AEC00F0236E070E11
:1012F000E15C02E2E16AE552E16E2350020EF3CFB7
:10130000DBFF030EF4CFDBFF020EDBCF23F0030E77
:10131000DBCF24F023C0F3FF24C0F4FF040EE15C14
:1013200002E2E16AE552E16EE552E5CFDAFFE7CF8E
:04133000D9FF1200CF
:0C133400D9CFE6FFDACFE6FFE1CFD9FF0A
:10134000E2CFDAFFFB0EDBCF23F0FC0EDBCF24F085
:101350000001800E24141AE1FB0EDBCFE9FFFC0E26
:10136000DBCFEAFFEECFF3FFEDCFF4FFEE2A000E66
:10137000EF22F3CFE9FFF4CFEAFFFD0EDBCFEFFF63
:10138000EF50246AF36E24C0F4FF10D0FB0EDB5044
:10139000FE0806E1FD0EDBCFE6FF95EC0AF005D076
:1013A000FD0EDBCFE6FF03EC00F0E552E552E5CFA2
:0813B000DAFFE7CFD9FF1200BC
:0813B80006500B02F3CF02F016
:1013C000F4CF03F00C02F3500326000EF420046E59
:1013D00006500D02F3500426000EF420056E065050
:1013E0000E02F350052607500B02F3500326F4506B
:1013F0000422000E052207500C02F3500426F4507C
:10140000052207500D02F350052608500B02F35039
:101410000426F450052208500C02F350052609500A
:081420000B02F3500526120037
:0814280009C013F008C012F026
:1014300008500D02F4CF07F0F3CF06F009500E026A
:10144000F4CF09F0F3CF08F00D02F3500726F45063
:101450000822E86A092212500E02F3500726F450BF
:101460000822E86A09220EAE3AEF0AF01250085E2E
:101470001350095A13AE000C0D50085E0E50095A55
:02148000000C5E
:0E148200056A046A036A026A200EE76ED890BB
:101490000636073608360936023603360436053670
:1014A0000B50025C0C5003580D5004580E50055858
:1014B00009E30B50025E0C50035A0D50045A0E50B3
:0A14C000055A062AE72EE4D71200B1
:0614CA00F36AF46AFF0E54
:1014D000E124E96EFF0EE220EA6EED6607D02F0EE2
:0E14E000EF6404D03A0EEF6001D0F32A120040
:0214EE00000EEE
:1014F000F36E00EE00F0060E01D81200EA6002D092
:0E150000EE6AFCD7F350E9601200EE6AFCD7E9
:02150E0015EED8
:1015100000F025EE00F0F86A019CB2EC08F0AEECA9
:0A1520000AF0A3EC07F0FBD712005D
:06152A00FF0EE350ACBA15
:1015300004D0AF6AAB8EAC8A949CACA2FED7AD6EE1
:06154000F36EF46A1200D4
:0A154600303132333435363738398E
:07155000616263646566003F
:051557000D0A256300F0
:02155C0012007B
:02155E00FEFF8E
:10156000000000000000000000000000000000007B
:01157000007A
:020000040030CA
:0100010028D6
:0100020003FA
:010003003CC0
:01000500BD3D
:010006008178
:00000001FF
